{
  "contractName": "Committee",
  "abi": [
    {
      "anonymous": false,
      "inputs": [
        {
          "indexed": false,
          "internalType": "address",
          "name": "stakeholder",
          "type": "address"
        },
        {
          "indexed": false,
          "internalType": "uint256",
          "name": "balance",
          "type": "uint256"
        }
      ],
      "name": "amountWithdrawed",
      "type": "event"
    },
    {
      "anonymous": false,
      "inputs": [
        {
          "indexed": false,
          "internalType": "uint256",
          "name": "committeeId",
          "type": "uint256"
        },
        {
          "indexed": false,
          "internalType": "string",
          "name": "name",
          "type": "string"
        },
        {
          "indexed": false,
          "internalType": "uint256",
          "name": "balance",
          "type": "uint256"
        },
        {
          "indexed": false,
          "internalType": "address",
          "name": "stakeholder",
          "type": "address"
        },
        {
          "indexed": false,
          "internalType": "uint256",
          "name": "submitAmount",
          "type": "uint256"
        }
      ],
      "name": "newCommittee",
      "type": "event"
    },
    {
      "inputs": [
        {
          "internalType": "uint256",
          "name": "",
          "type": "uint256"
        }
      ],
      "name": "committees",
      "outputs": [
        {
          "internalType": "string",
          "name": "name",
          "type": "string"
        },
        {
          "internalType": "uint256",
          "name": "balance",
          "type": "uint256"
        },
        {
          "internalType": "address",
          "name": "stakeholder",
          "type": "address"
        },
        {
          "internalType": "uint256",
          "name": "submitAmount",
          "type": "uint256"
        }
      ],
      "stateMutability": "view",
      "type": "function",
      "constant": true
    },
    {
      "inputs": [
        {
          "internalType": "string",
          "name": "name",
          "type": "string"
        },
        {
          "internalType": "address",
          "name": "stakeholder",
          "type": "address"
        },
        {
          "internalType": "uint256",
          "name": "submitAmount",
          "type": "uint256"
        }
      ],
      "name": "createCommittee",
      "outputs": [],
      "stateMutability": "payable",
      "type": "function",
      "payable": true
    },
    {
      "inputs": [
        {
          "internalType": "uint256",
          "name": "committeeId",
          "type": "uint256"
        }
      ],
      "name": "joinCommittee",
      "outputs": [],
      "stateMutability": "payable",
      "type": "function",
      "payable": true
    },
    {
      "inputs": [
        {
          "internalType": "uint256",
          "name": "committeeId",
          "type": "uint256"
        }
      ],
      "name": "approveWithdrawal",
      "outputs": [],
      "stateMutability": "nonpayable",
      "type": "function"
    },
    {
      "inputs": [
        {
          "internalType": "uint256",
          "name": "committeeId",
          "type": "uint256"
        }
      ],
      "name": "withdraw",
      "outputs": [],
      "stateMutability": "nonpayable",
      "type": "function"
    }
  ],
  "bytecode": "0x608060405234801561001057600080fd5b5061122a806100206000396000f3fe60806040526004361061004a5760003560e01c8063204ae9fc1461004f5780632e1a7d4d1461006b57806330983dba146100945780639eceddea146100b0578063f5e820fd146100d9575b600080fd5b61006960048036038101906100649190610a8b565b610119565b005b34801561007757600080fd5b50610092600480360381019061008d9190610a8b565b6102ee565b005b6100ae60048036038101906100a99190610c5c565b6105e7565b005b3480156100bc57600080fd5b506100d760048036038101906100d29190610a8b565b6107ed565b005b3480156100e557600080fd5b5061010060048036038101906100fb9190610a8b565b6108c6565b6040516101109493929190610d71565b60405180910390f35b60016000828152602001908152602001600020600301543414610171576040517f08c379a000000000000000000000000000000000000000000000000000000000815260040161016890610e2f565b60405180910390fd5b60016000828152602001908152602001600020600401339080600181540180825580915050600190039060005260206000200160009091909190916101000a81548173ffffffffffffffffffffffffffffffffffffffff021916908373ffffffffffffffffffffffffffffffffffffffff16021790555060006001600083815260200190815260200160002060050160003373ffffffffffffffffffffffffffffffffffffffff1673ffffffffffffffffffffffffffffffffffffffff16815260200190815260200160002060006101000a81548160ff0219169083151502179055506001600082815260200190815260200160002060020160009054906101000a900473ffffffffffffffffffffffffffffffffffffffff1673ffffffffffffffffffffffffffffffffffffffff163373ffffffffffffffffffffffffffffffffffffffff16146102eb57346001600083815260200190815260200160002060010160008282546102e39190610e7e565b925050819055505b50565b6001600082815260200190815260200160002060020160009054906101000a900473ffffffffffffffffffffffffffffffffffffffff1673ffffffffffffffffffffffffffffffffffffffff163373ffffffffffffffffffffffffffffffffffffffff1614610392576040517f08c379a000000000000000000000000000000000000000000000000000000000815260040161038990610f46565b60405180910390fd5b60006001600083815260200190815260200160002060010154116103eb576040517f08c379a00000000000000000000000000000000000000000000000000000000081526004016103e290610fb2565b60405180910390fd5b60006001905060005b60016000848152602001908152602001600020600401805490508110156104ea57600060016000858152602001908152602001600020600401828154811061043f5761043e610fd2565b5b9060005260206000200160009054906101000a900473ffffffffffffffffffffffffffffffffffffffff1690506001600085815260200190815260200160002060050160008273ffffffffffffffffffffffffffffffffffffffff1673ffffffffffffffffffffffffffffffffffffffff16815260200190815260200160002060009054906101000a900460ff166104d657600092505b5080806104e290611001565b9150506103f4565b508061052b576040517f08c379a0000000000000000000000000000000000000000000000000000000008152600401610522906110bc565b60405180910390fd5b600060016000848152602001908152602001600020600101549050600060016000858152602001908152602001600020600101819055503373ffffffffffffffffffffffffffffffffffffffff166108fc829081150290604051600060405180830381858888f193505050501580156105a8573d6000803e3d6000fd5b507f10cac91d45c8d55480414251bcade550f3554c6335d537c3680544e7a6da734733826040516105da9291906110dc565b60405180910390a1505050565b6000600160008060008154809291906105ff90611001565b91905055815260200190815260200160002090508381600001908051906020019061062b92919061099e565b50348160010181905550828160020160006101000a81548173ffffffffffffffffffffffffffffffffffffffff021916908373ffffffffffffffffffffffffffffffffffffffff16021790555081816003018190555060008160050160003373ffffffffffffffffffffffffffffffffffffffff1673ffffffffffffffffffffffffffffffffffffffff16815260200190815260200160002060006101000a81548160ff02191690831515021790555080600401839080600181540180825580915050600190039060005260206000200160009091909190916101000a81548173ffffffffffffffffffffffffffffffffffffffff021916908373ffffffffffffffffffffffffffffffffffffffff16021790555060018160050160008573ffffffffffffffffffffffffffffffffffffffff1673ffffffffffffffffffffffffffffffffffffffff16815260200190815260200160002060006101000a81548160ff0219169083151502179055507f94860e9a4164b99578746df557fc11e06a87ead8adc0619c303b95389f0e1d6d60016000546107ca9190611105565b853486866040516107df959493929190611139565b60405180910390a150505050565b6001600082815260200190815260200160002060050160003373ffffffffffffffffffffffffffffffffffffffff1673ffffffffffffffffffffffffffffffffffffffff16815260200190815260200160002060009054906101000a900460ff161561085857600080fd5b600180600083815260200190815260200160002060050160003373ffffffffffffffffffffffffffffffffffffffff1673ffffffffffffffffffffffffffffffffffffffff16815260200190815260200160002060006101000a81548160ff02191690831515021790555050565b60016020528060005260406000206000915090508060000180546108e9906111c2565b80601f0160208091040260200160405190810160405280929190818152602001828054610915906111c2565b80156109625780601f1061093757610100808354040283529160200191610962565b820191906000526020600020905b81548152906001019060200180831161094557829003601f168201915b5050505050908060010154908060020160009054906101000a900473ffffffffffffffffffffffffffffffffffffffff16908060030154905084565b8280546109aa906111c2565b90600052602060002090601f0160209004810192826109cc5760008555610a13565b82601f106109e557805160ff1916838001178555610a13565b82800160010185558215610a13579182015b82811115610a125782518255916020019190600101906109f7565b5b509050610a209190610a24565b5090565b5b80821115610a3d576000816000905550600101610a25565b5090565b6000604051905090565b600080fd5b600080fd5b6000819050919050565b610a6881610a55565b8114610a7357600080fd5b50565b600081359050610a8581610a5f565b92915050565b600060208284031215610aa157610aa0610a4b565b5b6000610aaf84828501610a76565b91505092915050565b600080fd5b600080fd5b6000601f19601f8301169050919050565b7f4e487b7100000000000000000000000000000000000000000000000000000000600052604160045260246000fd5b610b0b82610ac2565b810181811067ffffffffffffffff82111715610b2a57610b29610ad3565b5b80604052505050565b6000610b3d610a41565b9050610b498282610b02565b919050565b600067ffffffffffffffff821115610b6957610b68610ad3565b5b610b7282610ac2565b9050602081019050919050565b82818337600083830152505050565b6000610ba1610b9c84610b4e565b610b33565b905082815260208101848484011115610bbd57610bbc610abd565b5b610bc8848285610b7f565b509392505050565b600082601f830112610be557610be4610ab8565b5b8135610bf5848260208601610b8e565b91505092915050565b600073ffffffffffffffffffffffffffffffffffffffff82169050919050565b6000610c2982610bfe565b9050919050565b610c3981610c1e565b8114610c4457600080fd5b50565b600081359050610c5681610c30565b92915050565b600080600060608486031215610c7557610c74610a4b565b5b600084013567ffffffffffffffff811115610c9357610c92610a50565b5b610c9f86828701610bd0565b9350506020610cb086828701610c47565b9250506040610cc186828701610a76565b9150509250925092565b600081519050919050565b600082825260208201905092915050565b60005b83811015610d05578082015181840152602081019050610cea565b83811115610d14576000848401525b50505050565b6000610d2582610ccb565b610d2f8185610cd6565b9350610d3f818560208601610ce7565b610d4881610ac2565b840191505092915050565b610d5c81610a55565b82525050565b610d6b81610c1e565b82525050565b60006080820190508181036000830152610d8b8187610d1a565b9050610d9a6020830186610d53565b610da76040830185610d62565b610db46060830184610d53565b95945050505050565b7f416d6f756e74206e6f7420657175616c20746f2074686520726571756972656460008201527f20616d6f756e7421000000000000000000000000000000000000000000000000602082015250565b6000610e19602883610cd6565b9150610e2482610dbd565b604082019050919050565b60006020820190508181036000830152610e4881610e0c565b9050919050565b7f4e487b7100000000000000000000000000000000000000000000000000000000600052601160045260246000fd5b6000610e8982610a55565b9150610e9483610a55565b9250827fffffffffffffffffffffffffffffffffffffffffffffffffffffffffffffffff03821115610ec957610ec8610e4f565b5b828201905092915050565b7f596f7520617265206e6f7420616c6c6f77656420746f2077697468647261772060008201527f6d6f6e6579210000000000000000000000000000000000000000000000000000602082015250565b6000610f30602683610cd6565b9150610f3b82610ed4565b604082019050919050565b60006020820190508181036000830152610f5f81610f23565b9050919050565b7f496e73756666696369656e742062616c616e6365210000000000000000000000600082015250565b6000610f9c601583610cd6565b9150610fa782610f66565b602082019050919050565b60006020820190508181036000830152610fcb81610f8f565b9050919050565b7f4e487b7100000000000000000000000000000000000000000000000000000000600052603260045260246000fd5b600061100c82610a55565b91507fffffffffffffffffffffffffffffffffffffffffffffffffffffffffffffffff82141561103f5761103e610e4f565b5b600182019050919050565b7f416c6c207061727469636970616e747320686176656e2774207965742061707060008201527f726f766564207769746864726177616c00000000000000000000000000000000602082015250565b60006110a6603083610cd6565b91506110b18261104a565b604082019050919050565b600060208201905081810360008301526110d581611099565b9050919050565b60006040820190506110f16000830185610d62565b6110fe6020830184610d53565b9392505050565b600061111082610a55565b915061111b83610a55565b92508282101561112e5761112d610e4f565b5b828203905092915050565b600060a08201905061114e6000830188610d53565b81810360208301526111608187610d1a565b905061116f6040830186610d53565b61117c6060830185610d62565b6111896080830184610d53565b9695505050505050565b7f4e487b7100000000000000000000000000000000000000000000000000000000600052602260045260246000fd5b600060028204905060018216806111da57607f821691505b602082108114156111ee576111ed611193565b5b5091905056fea26469706673582212205d6a2ff30e31939ce76ce79cb235277ea2346243fc840a05c9af88e6ab7bc7fb64736f6c63430008090033",
  "immutableReferences": {},
  "source": "// SPDX-License-Identifier: MIT\npragma solidity ^0.8.9;\n\ncontract Committee{\n\n    event newCommittee(uint256 committeeId, string name, uint balance, address stakeholder, uint256 submitAmount);\n    event amountWithdrawed(address stakeholder, uint balance);\n\n    struct CommitteeStruct{\n        string name;\n        uint balance;\n        address stakeholder;\n        uint256 submitAmount;\n        address[] participants;\n        mapping(address => bool) approvals;\n    }\n\n    uint256 numCommittees;\n    mapping(uint256 => CommitteeStruct) public committees;\n\n\n    function createCommittee(string memory name, address stakeholder, uint256 submitAmount) payable public {\n\n        CommitteeStruct storage committee  = committees[numCommittees++];\n        committee.name = name;\n        committee.balance = msg.value;\n        committee.stakeholder = stakeholder;\n        committee.submitAmount = submitAmount;\n        committee.approvals[msg.sender] = false;\n\n        committee.participants.push(stakeholder);\n        committee.approvals[stakeholder] = true;\n        emit newCommittee(numCommittees-1, name, msg.value, stakeholder, submitAmount);\n    }\n\n    function joinCommittee(uint256 committeeId) payable public {\n\n        require(msg.value == committees[committeeId].submitAmount, \"Amount not equal to the required amount!\");\n        committees[committeeId].participants.push(msg.sender);\n        committees[committeeId].approvals[msg.sender] = false;\n\n        if(msg.sender != committees[committeeId].stakeholder){\n            committees[committeeId].balance += msg.value;\n        }\n\n    }\n\n    function approveWithdrawal(uint256 committeeId) public {\n        require(!committees[committeeId].approvals[msg.sender]);\n        committees[committeeId].approvals[msg.sender] = true;\n    }\n\n    function withdraw(uint256 committeeId) public {\n        require(msg.sender == committees[committeeId].stakeholder,  \"You are not allowed to withdraw money!\");\n        require(committees[committeeId].balance > 0, \"Insufficient balance!\");\n        bool check = true;\n\n        for(uint256 i = 0; i < committees[committeeId].participants.length; i++){\n            address participant = committees[committeeId].participants[i];\n            if(!committees[committeeId].approvals[participant]) check = false;\n        }\n\n        require(check, \"All participants haven't yet approved withdrawal\");\n\n        uint balance = committees[committeeId].balance;\n        committees[committeeId].balance = 0;\n        payable(msg.sender).transfer(balance);\n\n        emit amountWithdrawed(msg.sender, balance);\n    }\n\n\n}",
  "sourcePath": "/home/se/Documents/Blockchain/Committee/contracts/Committee.sol",
  "compiler": {
    "name": "solc",
    "version": "0.8.9+commit.e5eed63a.Emscripten.clang"
  },
  "schemaVersion": "3.4.3",
  "updatedAt": "2021-10-13T18:55:58.746Z",
  "networkType": "ethereum",
  "devdoc": {
    "kind": "dev",
    "methods": {},
    "version": 1
  },
  "userdoc": {
    "kind": "user",
    "methods": {},
    "version": 1
  }
}